:040000008C10200040
:040004008C11200437
:040008008C1220082E
:04000C00021240207C
:040010000232402058
:040014000211402075
:040018000232482246
:04001C000252482222
:04002000025148221F
:040024000232502430
:040028000211582544
:04002C000211602736
:04003000021168262B
:040034000212702A1A
:040038000250702AD8
:04003C00001198C057
:040040000012A08288
:040044000012A8837B
:04004800112A000277
:04004C002016FF91EA
:04005000080000168E
:04005400201603E788
:04005800152A000263
:04005C002017FF91D9
:040060000800001A7A
:04006400201703E777
:0400680012F8000387
:04006C00201803E76E
:040070002019FF91C3
:040074000800001A66
:040078002339FF9198
:04007C000800002157
:040080002339006FB1
:0400840016D9FFFE8C
:040088002339006FA9
:04008C00AC16200C82
:04009000AC17201079
:040094008C12200C9E
:040098008C13201095
:00000001FF
